:020000020000FC
:2000000000400034086008140800683A00000000000000000000000000000000000000003E
:2000080006C00074DEC0001406800074D684921400082CC000083500003FFF06DEFFFC04A0
:20001000DFC00315DF000215DF000204E03FFE15E03FFF15010000742123D80400081240EA
:20001800E0BFFE171080012810000C1EE0BFFF1710C00104E0BFFE1711000044E13FFE155B
:20002000010000442084983A18800015010002342128480400083B00003FF106E03FFE15E1
:20002800003FEF06DEFFFD04DC0000152021883A2809883ADFC00215DC4001152823883ACA
:200030000008138081400217010000742120550429000115100F883A880D883A8009883A6A
:200038000008154000FFFFC410C00926814002170180007401C000442880011731A3DC0442
:200040008009883A103EE83A10BFFFE00085C83ADFC00217DC400117DC000017DEC003042C
:20004800F800283A0080007410A49304200B883A1100001700080A412005883A10C00007D9
:200050001800022610800044003FFC061105C83AF800283A2880000B1080020C1000212621
:200058002880008FDEFFFA04DC000015DFC00515DD000415DCC00315DC800215DC4001157D
:200060002821883A100012162027883A3025883A3823883A0501000404400B0E880F883A40
:20006800A440010E01C100048140008F900D883A9809883A000820C00080050E88A3C83A05
:2000700090A5883A003FF4060005883A000007068080000B108010148080000D00BFFFC41E
:200078000000020600BFFFC4F800283ADFC00517DD000417DCC00317DC800217DC40011772
:20008000DC000017DEC00604F800283ADEFFFD04DC00001504000074DC40011584254F04F6
:200088002023883A2809883A300B883A380D883ADFC0021580000015000841C000FFFFC446
:2000900010C0031E80C000171800012688C00015DFC00217DC400117DC000017DEC00304E8
:20009800F800283ADEFFFC04DF000315DF000304E13FFD15E17FFE15E1BFFF15E0FFFE17E7
:2000A000E0BFFD1718800C2600000806E0BFFE1710C00104E0FFFE15E0FFFD171900010429
:2000A800E13FFD1518C0001710C00015E0FFFE17E0BFFF1718BFF51E0001883AE037883A03
:2000B000DF000017DEC00104F800283ADEFFFE04DFC00115DF000015D839883A01800074ED
:2000B80031A49A04014000742963E5040100007421249A04000826400180007431A00804F3
:2000C00001400074296008040100007421200804000826400180007431A3E504014000743F
:2000C8002963D804010000742123D80400082640000893400008B2000001883AE037883A7C
:2000D000DFC00117DF000017DEC00204F800283ADEFFFD04DFC00215DF000115DF000104F8
:2000D8000009883A000855000001883A000858800008A600010000742122B0040008BE80DD
:2000E000D0A0BE17D0E0BF17D120C017200D883A180B883A1009883A000803C0E0BFFF1540
:2000E80001000044000885C0E13FFF170008BFC0DEFFFD04DFC00215DF000115DF0001043C
:2000F000E13FFF15E13FFF1700087FC0E037883ADFC00117DF000017DEC00204F800283ABB
:2000F800DEFFFE04DFC00115DF000015D839883AD0A0071710000326D0A00717103EE83AC8
:2001000000000106D0A0BD04E037883ADFC00117DF000017DEC00204F800283ADEFFF90449
:20010800DFC00615DF000515DF000504E13FFD15E17FFE15E1BFFF15E0BFFD171000081602
:2001100001400304E13FFD170008F0401007883A0080007410A432041885883A00000106FE
:200118000005883AE0BFFB15E0BFFB1710002126E0BFFB1710800217108000CC1000182645
:20012000E0BFFB17108000171080061710001426E0BFFB171080001710800617E0FFFF1776
:20012800180D883AE17FFE17E13FFB17103EE83AE0BFFC15E0BFFC171000070E00083E00EC
:200130001007883AE0BFFC170085C83A1880001500BFFFC400000C06E0BFFC1700000A069A
:2001380000083E001007883A00800344188000150000040600083E001007883A0080144413
:200140001880001500BFFFC4E037883ADFC00117DF000017DEC00204F800283ADEFFFD040E
:20014800DFC00215DF000115DF000104E13FFF15D1600404E13FFF1700089BC0E037883A29
:20015000DFC00117DF000017DEC00204F800283ADEFFFD04DFC00215DF000115DF00010477
:20015800E13FFF150008BC40008000441001703A0001883AE037883ADFC00117DF00001787
:20016000DEC00204F800283ADEFFFE04DFC00115DF000015D839883A0100007421241D044B
:20016800000851C00001883AE037883ADFC00117DF000017DEC00204F800283ADEFFFA043C
:20017000DFC00515DF000415DF000404E13FFD15E17FFE15E1BFFF15E0BFFD171080001724
:20017800E0BFFC15E0BFFC1710C00A04E0BFFD1710800217100F883AE1BFFF17E17FFE17BF
:200180001809883A000867C0E037883ADFC00117DF000017DEC00204F800283ADEFFFA04EE
:20018800DFC00515DF000415DF000404E13FFD15E17FFE15E1BFFF15E0BFFD17108000170C
:20019000E0BFFC15E0BFFC1710C00A04E0BFFD1710800217100F883AE1BFFF17E17FFE17A7
:200198001809883A00087680E037883ADFC00117DF000017DEC00204F800283ADEFFF7040A
:2001A000DF000815DF000804E13FFC15E17FFD15E1BFFE15E1FFFF15E0BFFC1710800017B5
:2001A800E0BFF915E0BFFD17E0BFF815E0BFFE17E0FFFD171885883AE0BFFA15000012065F
:2001B000E0BFF91710800037E0BFFB15E0BFFB1710A0000C10000626E0BFF81710C000449F
:2001B800E0FFF815E0FFFB1710C0000500000606E0FFF817E0BFFD171880071EE0BFFF1756
:2001C0001090000C1000061EE0FFF817E0BFFA1718BFEB36000003060001883A00000106D6
:2001C8000001883AE0FFF817E0BFFD1718800426E0FFF817E0BFFD171885C83A00000606A5
:2001D000E0BFFF171090000C1000022600BFFD440000010600BFFEC4E037883ADF0000171F
:2001D800DEC00104F800283ADEFFF904DF000615DF000604E13FFC15E17FFD15E1BFFE15F7
:2001E000E1FFFF15E0BFFC1710800017E0BFFA15E0BFFE17E0FFFD171885883AE0BFFB154F
:2001E80000000E06E0BFFA17108001041080003710BFFFEC10000926E0FFFA17E0BFFD173B
:2001F00011000044E13FFD151080000310803FCC1080201C10BFE00418800035E0FFFD17FB
:2001F800E0BFFB1718BFEF36E0BFFE17E037883ADF000017DEC00104F800283ADEFFFE04DB
:20020000DF000115DF000104E13FFF150005883AE037883ADF000017DEC00104F800283A3E
:20020800DEFFFE04DFC00115DF000015D839883AD0A0071710000326D0A00717103EE83AB6
:2002100000000106D0A0BD04E037883ADFC00117DF000017DEC00204F800283ADEFFFB0436
:20021800DFC00415DF000315DF000304E13FFF15E0BFFF171000081601400304E13FFF179C
:200220000008F0401007883A0080007410A432041885883A000001060005883AE0BFFD15F1
:20022800E0BFFD1710001926E0BFFD17108000171080041710000626E0BFFD171080001719
:2002300010800417E13FFD17103EE83A000001060005883AE0BFFE15E13FFF170008B400ED
:20023800E0BFFE171000070E000882001007883AE0BFFE170085C83A1880001500BFFFC400
:20024000000007060005883A00000506000882001007883A008014441880001500BFFFC455
:20024800E037883ADFC00117DF000017DEC00204F800283ADEFFFF04DF000015D839883A6B
:200250000001883AE037883ADF000017DEC00104F800283ADEFFFC04DF000315DF00030445
:20025800E13FFD15E17FFE15E1BFFF15E0BFFF17E037883ADF000017DEC00104F800283AAC
:20026000DEFFFE04DFC00115DF000015D839883AD0A0071710000326D0A00717103EE83A5E
:2002680000000106D0A0BD04E037883ADFC00117DF000017DEC00204F800283ADEFFFA04DF
:20027000DFC00515DF000415DF000404E13FFE15E17FFF15E0BFFE1710000326E0BFFE178E
:20027800108002171000061E000898001007883A008005841880001500BFFA840000130604
:20028000E0BFFE17E0FFFF17E0FFFC15E0BFFD15E0BFFD17E0FFFC1710C00115E0BFFC17D7
:2002880010C00017E0BFFD1710C00015E0BFFC1710800017E0FFFD1710C00115E0BFFC17F3
:20029000E0FFFD1710C000150005883AE037883ADFC00117DF000017DEC00204F800283A2B
:20029800DEFFFD04DFC00215DF000115DF0001040080007410A3D704E0BFFF150000060698
:2002A000E0BFFF1710800017103EE83AE0BFFF1710BFFF04E0BFFF15E0FFFF17008000744F
:2002A80010A3D80418BFF62E0001883AE037883ADFC00117DF000017DEC00204F800283A65
:2002B000DEFFFD04DFC00215DF000115DF0001040080007410A3D704E0BFFF150000060680
:2002B800E0BFFF1710800017103EE83AE0BFFF1710BFFF04E0BFFF15E0FFFF170080007437
:2002C00010A3D80418BFF62E0001883AE037883ADFC00117DF000017DEC00204F800283A4D
:2002C800DEFFFF04DF000015D839883A0001883AE037883ADF000017DEC00104F800283AE0
:2002D000DEFFFC04DFC00315DF000215DC000115DF000204E13FFE15E0BFFE17108000D066
:2002D8001000111E0400007484243204E0BFFE17014003041009883A0008F0408085883A9B
:2002E00010800204100000150400007484243204E0BFFE17014003041009883A0008F040DE
:2002E8008085883A100000150001883AE6FFFF04DFC00217DF000117DC000017DEC0030418
:2002F000F800283ADEFFFF04DF000015D839883A000170FA0001883AE037883ADF000017F0
:2002F800DEC00104F800283A200B883A000F883A000D883A0009883A0008C1C1DEFFFE0428
:20030000000B883ADC000015DFC001152021883A0008D7408009883A0008F2C0008000744F
:2003080010A4920410C00017DEFFF904DC0000151C000C17DD400515DD000415DCC00315B9
:20031000DC800215DC400115DFC00615202B883A2823883A3027883A3825883A1029883A21
:200318008000021E1C000D041C000C158080011700C007C41880110E008000341080000419
:200320001000021E00BFFFC40000310601002304000000001021883A103FFA261000011524
:20032800A080001710C00C1780C0001514000C1580002215A8001D2600000606A8001B266A
:20033000808022171000091E0080003410800004103FEC260100420400000000103FE926EF
:2003380010004015100041158080221581400117010000442947883A18C7883A10C7883A19
:200340001CC000152148983A11404017290AB03A114040151C80201500C00084A8C0031E68
:2003480010C041171908B03A110041158080011710C00044108000841085883A1085883A0D
:2003500080C0011580A1883A844000150005883ADFC00617DD400517DD000417DCC0031711
:20035800DC800217DC400117DC000017DEC00704F800283ADEFFF504DD00051505000074A0
:20036000DC800315DFC00A15DF000915DDC00815DD800715DD400615DCC00415DC400215FB
:20036800DC000115D90000152825883AA5249204A44000178CC00C178C400C0498004526DE
:200370009C0001170090003410BFFFC49D40221785BFFFC480A1883A8421883A8421883A95
:20037800AC2F883A840002049C21883AB000271690000726A800041EB5BFFFC4BDFFFF0455
:20038000843FFF04003FF906B9002017913FFA1E9900011782000017213FFFC4B100021E43
:200388009D8001150000010680000015403FF2269F000117A8000526008000441592983A28
:20039000A9404017494A703A2800021E403EE83A00000906A90041174908703A2000041E9B
:20039800B9400017D9000017403EE83A00000206B9000017403EE83A99000117E13FCC1E72
:2003A00089000017993FDC26003FC906008000341080000410000F26994001179900001787
:2003A8002800091E2000082689000015A8000226A809883A000000009809883A0000000054
:2003B0008CC00017003FBD069823883A2027883A003FBA06DFC00A17DF000917DDC00817C8
:2003B800DD800717DD400617DD000517DCC00417DC800317DC400217DC000117DEC00B0474
:2003C000F800283A0005883A2000072620C0004C2008D07A180001261145883A294B883A84
:2003C800203FFA1EF800283AF800283ADEFFFD04DF000215DF000204E13FFF150001883A3A
:2003D000E0BFFF17E0BFFE15E0BFFE1710000226002AF07000000106002AF0B0003FFF061B
:2003D80061626D45646163722B2B736F000000200000000A7665642F61746A2F61755F671C
:2003E000305F7472000000007665642F6C756E2F0000006C00000000000000000000000030
:2003E8000000000000000000000000000000000000000000000000000000000000000000F5
:2003F0000000000000000000000000000000000000000000000000000000000000000000ED
:2003F8000000000000000000000000000000000000000000000000000000000000000000E5
:200400000000000000000000000000000000000000000000000000000000000000000000DC
:200408000000000000000000000000000000000000000000000000000000000000000000D4
:200410000000000000000000000000000000000000000000000000000000000000000000CC
:200418000000000000000000000000000000000000000000000000000000000000000000C4
:200420000000000000000000000000000000000000000000000000000000000000000000BC
:200428000000000000000000000000000000000000000000000000000000000000000000B4
:200430000000000000000000000000000000000000000000000000000000000000000000AC
:200438000000000000000000000000000000000000000000000000000000000000000000A4
:2004400000000000000000000000000000000000000000000000000000000000000000009C
:20044800000000000000000000000000000000000000000000000000000000000000000094
:2004500000000000000000000000000000000000000000000000000000000000000000008C
:20045800000000000000000000000000000000000000000000000000000000000000000084
:2004600000000000000000000000000000000000000000000000000000000000000000007C
:20046800000000000000000000000000000000000000000000000000000000000000000074
:2004700000000000000000000000000000000000000000000000000000000000000000006C
:20047800000000000000000000000000000000000000000000000000000000000000000064
:2004800000000000000000000000000000000000000000000000000000000000000000005C
:20048800000000000000000000000000000000000000000000000000000000000000000054
:2004900000000000000000000000000000000000000000000000000000000000000000004C
:20049800000000000000000000000000000090540000905C00009064000000000000000080
:2004A00000000000000000000000000000000000000000000000000000000000000000003C
:2004A800000000000000000000000000000000000000000000000000000000000000000034
:2004B00000000000000000000000000000000000000000000000000000000000000000002C
:2004B800000000000000000000000000000000000000000000000000000000000000000024
:2004C00000000000000000000000000000000000000000000000000000000000000000001C
:2004C800000000000000000000000004000000000001000A000000000002000A00000000F9
:2004D0000000000000000000000000000000000000008F740000000000000000000085BCC8
:2004D8000000861C00000000000000000000000000011010000092580000925800008F8856
:2004E00000000000000000000000000000008954000000000000000000000000000090A0EF
:2004E8000000000000000000000090A00000000000000000000090A0000000000000000094
:2004F0000000000000000000000000000000000000000000000000000000000000000000EC
:2004F8000000000000000000000000000000000000000000000000000000000000000000E4
:200500000000000000000000000000000000000000000000000000000000000000000000DB
:200508000000000000000000000000000000000000000000000000000000000000000000D3
:200510000000000000000000000000000000000000000000000000000000000000000000CB
:200518000000000000000000000000000000000000000000000000000000000000000000C3
:200520000000000000000000000000000000000000000000000000000000000000000000BB
:200528000000000000000000000000000000000000000000000000000000000000000000B3
:200530000000000000000000000000000000000000000000000000000000000000000000AB
:200538000000000000000000000000000000000000000000000000000000000000000000A3
:200540000000000000000000000000000000000000000000000000000000000000008F9478
:2005480000008F940000925000009250000090A0000090A0FFFFFFFF000000000000000050
:2005500000000000000000000000000000000000000000000000000000000000000000008B
:20055800000000000000000000000000000000000000000000000000000000000000000083
:2005600000000000000000000000000000000000000000000000000000000000000000007B
:20056800000000000000000000000000000000000000000000000000000000000000000073
:00000001FF
